{
  "_format": "hh-sol-artifact-1",
  "contractName": "BridgeSource",
  "sourceName": "contracts/BridgeSource.sol",
  "abi": [
    {
      "inputs": [
        {
          "internalType": "address",
          "name": "_token",
          "type": "address"
        }
      ],
      "stateMutability": "nonpayable",
      "type": "constructor"
    },
    {
      "inputs": [
        {
          "internalType": "address",
          "name": "owner",
          "type": "address"
        }
      ],
      "name": "OwnableInvalidOwner",
      "type": "error"
    },
    {
      "inputs": [
        {
          "internalType": "address",
          "name": "account",
          "type": "address"
        }
      ],
      "name": "OwnableUnauthorizedAccount",
      "type": "error"
    },
    {
      "anonymous": false,
      "inputs": [
        {
          "indexed": true,
          "internalType": "address",
          "name": "previousOwner",
          "type": "address"
        },
        {
          "indexed": true,
          "internalType": "address",
          "name": "newOwner",
          "type": "address"
        }
      ],
      "name": "OwnershipTransferred",
      "type": "event"
    },
    {
      "anonymous": false,
      "inputs": [
        {
          "indexed": true,
          "internalType": "address",
          "name": "user",
          "type": "address"
        },
        {
          "indexed": false,
          "internalType": "uint256",
          "name": "amount",
          "type": "uint256"
        },
        {
          "indexed": false,
          "internalType": "uint256",
          "name": "timestamp",
          "type": "uint256"
        }
      ],
      "name": "TokenLocked",
      "type": "event"
    },
    {
      "anonymous": false,
      "inputs": [
        {
          "indexed": true,
          "internalType": "address",
          "name": "user",
          "type": "address"
        },
        {
          "indexed": false,
          "internalType": "uint256",
          "name": "amount",
          "type": "uint256"
        }
      ],
      "name": "TokenUnlocked",
      "type": "event"
    },
    {
      "inputs": [],
      "name": "bridgeBalance",
      "outputs": [
        {
          "internalType": "uint256",
          "name": "",
          "type": "uint256"
        }
      ],
      "stateMutability": "view",
      "type": "function"
    },
    {
      "inputs": [
        {
          "internalType": "uint256",
          "name": "amount",
          "type": "uint256"
        }
      ],
      "name": "lockTokens",
      "outputs": [],
      "stateMutability": "nonpayable",
      "type": "function"
    },
    {
      "inputs": [
        {
          "internalType": "address",
          "name": "",
          "type": "address"
        }
      ],
      "name": "lockedBalances",
      "outputs": [
        {
          "internalType": "uint256",
          "name": "",
          "type": "uint256"
        }
      ],
      "stateMutability": "view",
      "type": "function"
    },
    {
      "inputs": [],
      "name": "owner",
      "outputs": [
        {
          "internalType": "address",
          "name": "",
          "type": "address"
        }
      ],
      "stateMutability": "view",
      "type": "function"
    },
    {
      "inputs": [],
      "name": "renounceOwnership",
      "outputs": [],
      "stateMutability": "nonpayable",
      "type": "function"
    },
    {
      "inputs": [],
      "name": "token",
      "outputs": [
        {
          "internalType": "contract IERC20",
          "name": "",
          "type": "address"
        }
      ],
      "stateMutability": "view",
      "type": "function"
    },
    {
      "inputs": [
        {
          "internalType": "address",
          "name": "newOwner",
          "type": "address"
        }
      ],
      "name": "transferOwnership",
      "outputs": [],
      "stateMutability": "nonpayable",
      "type": "function"
    },
    {
      "inputs": [
        {
          "internalType": "address",
          "name": "user",
          "type": "address"
        },
        {
          "internalType": "uint256",
          "name": "amount",
          "type": "uint256"
        }
      ],
      "name": "unlockTokens",
      "outputs": [],
      "stateMutability": "nonpayable",
      "type": "function"
    }
  ],
  "bytecode": "0x60806040523480156200001157600080fd5b506040516200104e3803806200104e833981810160405281019062000037919062000235565b33600073ffffffffffffffffffffffffffffffffffffffff168173ffffffffffffffffffffffffffffffffffffffff1603620000ad5760006040517f1e4fbdf7000000000000000000000000000000000000000000000000000000008152600401620000a4919062000278565b60405180910390fd5b620000be816200010760201b60201c565b5080600160006101000a81548173ffffffffffffffffffffffffffffffffffffffff021916908373ffffffffffffffffffffffffffffffffffffffff1602179055505062000295565b60008060009054906101000a900473ffffffffffffffffffffffffffffffffffffffff169050816000806101000a81548173ffffffffffffffffffffffffffffffffffffffff021916908373ffffffffffffffffffffffffffffffffffffffff1602179055508173ffffffffffffffffffffffffffffffffffffffff168173ffffffffffffffffffffffffffffffffffffffff167f8be0079c531659141344cd1fd0a4f28419497f9722a3daafe3b4186f6b6457e060405160405180910390a35050565b600080fd5b600073ffffffffffffffffffffffffffffffffffffffff82169050919050565b6000620001fd82620001d0565b9050919050565b6200020f81620001f0565b81146200021b57600080fd5b50565b6000815190506200022f8162000204565b92915050565b6000602082840312156200024e576200024d620001cb565b5b60006200025e848285016200021e565b91505092915050565b6200027281620001f0565b82525050565b60006020820190506200028f600083018462000267565b92915050565b610da980620002a56000396000f3fe608060405234801561001057600080fd5b50600436106100885760003560e01c80638da5cb5b1161005b5780638da5cb5b146101015780639d564d9a1461011f578063f2fde38b1461013b578063fc0c546a1461015757610088565b80630483a7f61461008d5780633b1f6a01146100bd5780636e27d889146100db578063715018a6146100f7575b600080fd5b6100a760048036038101906100a291906108b9565b610175565b6040516100b491906108ff565b60405180910390f35b6100c561018d565b6040516100d291906108ff565b60405180910390f35b6100f560048036038101906100f09190610946565b610230565b005b6100ff610403565b005b610109610417565b6040516101169190610982565b60405180910390f35b6101396004803603810190610134919061099d565b610440565b005b610155600480360381019061015091906108b9565b610657565b005b61015f6106dd565b60405161016c9190610a3c565b60405180910390f35b60026020528060005260406000206000915090505481565b6000600160009054906101000a900473ffffffffffffffffffffffffffffffffffffffff1673ffffffffffffffffffffffffffffffffffffffff166370a08231306040518263ffffffff1660e01b81526004016101ea9190610982565b602060405180830381865afa158015610207573d6000803e3d6000fd5b505050506040513d601f19601f8201168201806040525081019061022b9190610a6c565b905090565b60008111610273576040517f08c379a000000000000000000000000000000000000000000000000000000000815260040161026a90610af6565b60405180910390fd5b6000600160009054906101000a900473ffffffffffffffffffffffffffffffffffffffff1673ffffffffffffffffffffffffffffffffffffffff166323b872dd3330856040518463ffffffff1660e01b81526004016102d493929190610b16565b6020604051808303816000875af11580156102f3573d6000803e3d6000fd5b505050506040513d601f19601f820116820180604052508101906103179190610b85565b905080610359576040517f08c379a000000000000000000000000000000000000000000000000000000000815260040161035090610bfe565b60405180910390fd5b81600260003373ffffffffffffffffffffffffffffffffffffffff1673ffffffffffffffffffffffffffffffffffffffff16815260200190815260200160002060008282546103a89190610c4d565b925050819055503373ffffffffffffffffffffffffffffffffffffffff167f355f10f70d87fa96080456623e394dda4d29fed618766631109fcffaaf4460a583426040516103f7929190610c81565b60405180910390a25050565b61040b610703565b610415600061078a565b565b60008060009054906101000a900473ffffffffffffffffffffffffffffffffffffffff16905090565b610448610703565b80600260008473ffffffffffffffffffffffffffffffffffffffff1673ffffffffffffffffffffffffffffffffffffffff1681526020019081526020016000205410156104ca576040517f08c379a00000000000000000000000000000000000000000000000000000000081526004016104c190610cf6565b60405180910390fd5b80600260008473ffffffffffffffffffffffffffffffffffffffff1673ffffffffffffffffffffffffffffffffffffffff16815260200190815260200160002060008282546105199190610d16565b925050819055506000600160009054906101000a900473ffffffffffffffffffffffffffffffffffffffff1673ffffffffffffffffffffffffffffffffffffffff1663a9059cbb84846040518363ffffffff1660e01b815260040161057f929190610d4a565b6020604051808303816000875af115801561059e573d6000803e3d6000fd5b505050506040513d601f19601f820116820180604052508101906105c29190610b85565b905080610604576040517f08c379a00000000000000000000000000000000000000000000000000000000081526004016105fb90610bfe565b60405180910390fd5b8273ffffffffffffffffffffffffffffffffffffffff167f613edbda9d1e6bda8af8e869a973f88cccf93854a11f351589038de07e1ab4e38360405161064a91906108ff565b60405180910390a2505050565b61065f610703565b600073ffffffffffffffffffffffffffffffffffffffff168173ffffffffffffffffffffffffffffffffffffffff16036106d15760006040517f1e4fbdf70000000000000000000000000000000000000000000000000000000081526004016106c89190610982565b60405180910390fd5b6106da8161078a565b50565b600160009054906101000a900473ffffffffffffffffffffffffffffffffffffffff1681565b61070b61084e565b73ffffffffffffffffffffffffffffffffffffffff16610729610417565b73ffffffffffffffffffffffffffffffffffffffff16146107885761074c61084e565b6040517f118cdaa700000000000000000000000000000000000000000000000000000000815260040161077f9190610982565b60405180910390fd5b565b60008060009054906101000a900473ffffffffffffffffffffffffffffffffffffffff169050816000806101000a81548173ffffffffffffffffffffffffffffffffffffffff021916908373ffffffffffffffffffffffffffffffffffffffff1602179055508173ffffffffffffffffffffffffffffffffffffffff168173ffffffffffffffffffffffffffffffffffffffff167f8be0079c531659141344cd1fd0a4f28419497f9722a3daafe3b4186f6b6457e060405160405180910390a35050565b600033905090565b600080fd5b600073ffffffffffffffffffffffffffffffffffffffff82169050919050565b60006108868261085b565b9050919050565b6108968161087b565b81146108a157600080fd5b50565b6000813590506108b38161088d565b92915050565b6000602082840312156108cf576108ce610856565b5b60006108dd848285016108a4565b91505092915050565b6000819050919050565b6108f9816108e6565b82525050565b600060208201905061091460008301846108f0565b92915050565b610923816108e6565b811461092e57600080fd5b50565b6000813590506109408161091a565b92915050565b60006020828403121561095c5761095b610856565b5b600061096a84828501610931565b91505092915050565b61097c8161087b565b82525050565b60006020820190506109976000830184610973565b92915050565b600080604083850312156109b4576109b3610856565b5b60006109c2858286016108a4565b92505060206109d385828601610931565b9150509250929050565b6000819050919050565b6000610a026109fd6109f88461085b565b6109dd565b61085b565b9050919050565b6000610a14826109e7565b9050919050565b6000610a2682610a09565b9050919050565b610a3681610a1b565b82525050565b6000602082019050610a516000830184610a2d565b92915050565b600081519050610a668161091a565b92915050565b600060208284031215610a8257610a81610856565b5b6000610a9084828501610a57565b91505092915050565b600082825260208201905092915050565b7f616d6f756e74206d757374206265203e20300000000000000000000000000000600082015250565b6000610ae0601283610a99565b9150610aeb82610aaa565b602082019050919050565b60006020820190508181036000830152610b0f81610ad3565b9050919050565b6000606082019050610b2b6000830186610973565b610b386020830185610973565b610b4560408301846108f0565b949350505050565b60008115159050919050565b610b6281610b4d565b8114610b6d57600080fd5b50565b600081519050610b7f81610b59565b92915050565b600060208284031215610b9b57610b9a610856565b5b6000610ba984828501610b70565b91505092915050565b7f5472616e73666572206661696c65640000000000000000000000000000000000600082015250565b6000610be8600f83610a99565b9150610bf382610bb2565b602082019050919050565b60006020820190508181036000830152610c1781610bdb565b9050919050565b7f4e487b7100000000000000000000000000000000000000000000000000000000600052601160045260246000fd5b6000610c58826108e6565b9150610c63836108e6565b9250828201905080821115610c7b57610c7a610c1e565b5b92915050565b6000604082019050610c9660008301856108f0565b610ca360208301846108f0565b9392505050565b7f496e73756666696369656e74206c6f636b65642062616c616e63650000000000600082015250565b6000610ce0601b83610a99565b9150610ceb82610caa565b602082019050919050565b60006020820190508181036000830152610d0f81610cd3565b9050919050565b6000610d21826108e6565b9150610d2c836108e6565b9250828203905081811115610d4457610d43610c1e565b5b92915050565b6000604082019050610d5f6000830185610973565b610d6c60208301846108f0565b939250505056fea2646970667358221220f1ca8b21e0af2f56db26735b08bffb3bcf2aa30949a97d6f1fac350afc3086f664736f6c63430008140033",
  "linkReferences": {},
  "deployedLinkReferences": {}
}